:100000000C9439000C947B030C947B030C947B03BD
:100010000C947B030C947B030C947B030C947B0368
:100020000C947B030C947B030C947B030C947B0358
:100030000C947B030C947B030C947B030C947B0348
:100040000C947B030C947B030C947B030C947B0338
:100050000C947B0300600081800081018100070413
:100060000181018880018801890008040189018AD1
:10007000800011241FBECFE5D8E0DEBFCDBFE4E590
:10008000F0E040E017C0B591A5913591259105911B
:1000900007FD0CC095918591EF01F92FE82F059090
:1000A0000D92A217B307D9F7FE0104C01D92A21743
:1000B000B307E1F7E137F40731F70E9411020C941E
:0600C0007003F894FFCF6D
:1000C6000F931F93CF93DF9320E02EC0422F50E073
:1000D60081E090E0022E02C0880F991F0A94E2F791
:1000E60087BB809588BB85E38A95F1F7000089B3C5
:1000F6008095FA01E858FF4F90818917A1F0FA011F
:10010600E858FF4F80838FE390E0909386018093B9
:1001160085018091600090916100909384018093A5
:100126008301109287012F5F283080F2809185012C
:100136009091860181309105B9F532C0812F0E94D8
:10014600CE01082F812F90E0FC01EC59FF4FD081A2
:10015600D02721F1FC01EC59FF4F0083C0E01CC001
:100166008D2F90E00C2E02C0959587950A94E2F7A4
:1001760080FF11C081E090E00C2E02C0880F991F0D
:100186000A94E2F70823602F812F880F880F880FC3
:100196008C0F0E94E502CF5FC83010F31F5F01C0CD
:1001A60010E0183058F21FC0209175002A3FD9F090
:1001B600892BC9F480918301909184018130910546
:1001C60059F421E02093870120916C0030916D0055
:1001D6003093820120938101009729F00197909333
:1001E6008401809383018091850190918601009717
:1001F60029F001979093860180938501DF91CF9135
:060206001F910F91089505
:10020C0069E170E080E090E00E94960264EF71E09A
:10021C0080E090E00E9412038AEF8093750020E04A
:10022C000BC0822F90E0FC01E858FF4F1082FC01BC
:10023C00EC59FF4F10822F5F283098F3819904C03E
:10024C0082E08093800002C010928000829905C0E9
:10025C00809180008160809380008091800081304B
:10026C0099F028F08230E9F0833041F133C081E419
:10027C0091E0909377008093760081E091E09093E9
:10028C0073008093720026C081EC90E0909377000D
:10029C008093760081E890E09093730080937200D5
:1002AC0019C081E491E0909377008093760081E00F
:1002BC0091E090937300809372000CC081E491E004
:1002CC00909377008093760081E091E09093730097
:0A02DC008093720081E885BB08954D
:1002E60088230CF448C0909171009130C1F020F041
:1002F600943008F042C024C0E0917600F091770077
:10030600E80FF11D808190918901913009F042C07A
:10031600813608F43FC08B37E8F580520895E091A6
:100326007200F0917300E80FF11D808190918901B0
:10033600913081F5813470F18B3560F5805E0895DA
:10034600E0917600F0917700E80FF11D20812F37BC
:1003560011F49330A1F080EA820F8032D8F0283071
:1003660081F02A3081F02B3081F0253181F02F3752
:1003760080F0822F08958AEF08958AEF08958FEF0F
:10038600089586E008958CE0089588E1089589E04F
:0603960008958AEF0895AE
:10039C00CF93E82FF0E0E858FF4FC081811138C0AF
:1003AC00109271008C2F807319F081E08093710092
:1003BC00C3FF05C0809171008260809371008091B1
:1003CC0074006C2F669566956695677060937400E3
:1003DC00C77C8627809370008823D1F080FF04C0EF
:1003EC0061708BEF0E94E5028091700081FF06C066
:1003FC006091740062708CEF0E94E5028091700035
:10040C0082FF06C06091740064708DEF0E94E5025B
:06041C008C2FCF91089522
:100422000E945A030E9479020E945A020E946300AB
:10043200809187018823B1F380918101909182019B
:10044200009731F001979093820180938101EACF66
:1004520080916C0090916D00909382018093810154
:0E046200809175008A3FF0F60E94CC02DBCF3D
:10047000A1E21A2EAA1BBB1BFD010DC0AA1FBB1FA8
:10048000EE1FFF1FA217B307E407F50720F0A21B1A
:10049000B30BE40BF50B661F771F881F991F1A9487
:1004A00069F760957095809590959B01AC01BD01B1
:0404B000CF010895DB
:1004B40080918801882379F0869918C08FE19EE4A1
:1004C4000197F1F700C000000E94270310928801F1
:1004D400109287010895869B09C08FE19EE40197DD
:0E04E400F1F700C0000081E0809388010895C8
:1004F20084991AC02FE78AE196E02150804090400B
:10050200E1F700C000000E9427030E9406012FE7C6
:100512008AE196E0215080409040E1F700C000005F
:0A0522000E942703849BFECF08957A
:10052C009B01AC01A0EAB0E00E9465039B01AC0109
:10053C0060E472E48FE090E00E943802DA01C901B5
:10054C00C097A109B10980936C0090936D00A093A2
:08055C006E00B0936F000895DA
:1005640081B3806181BB82B38F7E82BB2FE78AE136
:1005740096E0215080409040E1F700C0000082B333
:10058400806182BB81B38F7E81BB10928401109203
:040594008301089542
:1005980085B38F7785BB8DE08A95F1F7000085B329
:1005A800806885BB85E08A95F1F7000082B38F7D6E
:1005B80082BB85E08A95F1F7000082B3806282BB36
:0205C800089594
:1005CA00CF93C62F662319F08093750007C09091C8
:1005DA007500891303C08AEF8093750080917500B6
:0E05EA000E9473016C2F0E94FC02CF910895B5
:1005F800662389F08F3F19F40E94B20208958A3F5A
:1006080060F4893F19F40E943A0381E0806885BB51
:0C0618000E94CC020895806885BB089504
:100624009B01AC01A8EEB3E00E94650320EA30E030
:1006340040E050E00E943802209360003093610053
:0A0644004093620050936300089594
:10064E0080918901882321F082B3886082BB03C028
:10065E0082B3877F82BB81E090918901911180E006
:06066E008093890108954C
:1006740082B3816082BB8FE493EC0197F1F700C0F1
:10068400000082B38E7F82BB10928401109283019A
:020694000895C7
:10069600A29FB001B39FC001A39F700D811D1124BD
:0E06A600911DB29F700D811D1124911D0895AC
:1006B4001ABA8FEF8BBB84BB89E281BB8EEF82BBFE
:0606C4000E9406010895EA
:1006CA000E944B03A59F900DB49F900DA49F800D8F
:0606DA00911D112408959A
:1006E000EC010E9480030E947F03CE010E948103DF
:0606F000CE010E947D0313
:0406F6000C94000060
:0406FA000E946100F9
:0206FE0008955D
:0207000008955A
:02070200089558
:1007040020220DFBFCFD7E0B08F9147C7B7D7F0A07
:100714003E4C505F2B293A3F4D4A494F282A4B3CC7
:1007240042475A55265E484E434452542524465661
:10073400594157452340535808151B51211E1D1C70
:1007440020270DFBFCFD600B08F9145C5B5D7F0A40
:100754002E6C702D3D303B2F6D6A696F39386B2CD0
:1007640062677A753736686E636472743534667698
:10077400796177653332737808151B71311312115F
:1007840020220DFBFCFD7E0B08F9147C7B7D7F0A87
:100794003E4C505F2B293A3F4D4A494F282A4B3C47
:1007A40042475955265E484E4344525425244656E2
:1007B4005A4157452340535808151B51211E1D1CEF
:1007C40020270DFBFCFD600B08F9145C5B5D7F0AC0
:1007D4002E6C702D3D303B2F6D6A696F39386B2C50
:1007E400626779753736686E636472743534667619
:1007F4007A6177653332737808151B7131131211DE
:0108040001F2
:00000001FF
